S00F00004661624C6F636B2E7372656383
S11300000C9477060C949F060C949F060C949F0600
S11300100C949F060C949F060C949F060C949F06C8
S11300200C949F060C949F060C949F060C94340920
S11300300C949F060C949F060C94D7080C949F066E
S11300400C949F060C949F060C949F060C949F0698
S11300500C949F060C949F060C949F060C949F0688
S11300600C949F060C949F062804002F040023047C
S1130070002F02002F02002804002F020023020098
S11300802302002302002F04002804002F02002F63
S113009002002304002F02002F02002804000004A1
S11300A000000200200200210200220200230400BA
S11300B02C02002302002C02002A02000002002964
S11300C00A00000200250200240200230200220488
S11300D0002A02002202002A020028020000020074
S11300E0270A00000200230200220200210200204D
S11300F00200230200280200250200000200280258
S1130100002A04002302002602002B020028020019
S11301100002002B02002D04002F10002F0200000B
S113012002002F02002F02003102002F02002B01D7
S1130130002A03002804002C02002302002C0200E1
S11301402A020000020029020029080000020025FA
S113015002002402002302002204002A02002202D8
S1130160002A0200280200000200270A0000020000
S113017023020022020021020020020023020028A0
S113018002002502000002002802002A04002302C3
S1130190002602002B02002802000002002B0200AD
S11301A02D04002F10000004002F02002F02003144
S11301B002002F02002B01002A030028040000047F
S11301C0002304002F02002F02002804002F020045
S11301D02302002302002302002F04002804002F1E
S11301E002002F02002304002F02002F020000044B
S11301F0002804002A04002C04002D04000004003C
S11302000002002D02002F02002D02003102002FF7
S113021002000002002D02000002002B02002A024C
S1130220002802002608002802002902000002001B
S11302302A06000004000002002602002502002411
S113024002002304002B02002B02000002002B02F8
S1130250002D02002B02002F02002D04002B0200AF
S113026000020029020028020026020024040024BF
S113027004002602002806002702002802000002CB
S1130280002A1200000200200200210200220200C3
S11302902304002C02002302002C02002A02000086
S11302A0020029020029080000020025020024029D
S11302B0002302002204002A02002202002A020073
S11302C02802000002002702002708000002002381
S11302D00200220200210200200200230200280260
S11302E0002502000002002802002A040023020064
S11302F02602002B02002802000002002B02002D1F
S113030004002F10000004002F02002F020031020D
S1130310002F02002B01002A03002804000004001F
S11303202304002F02002F02002804002F020023C0
S113033002002302002302002F04002804002F02DD
S1130340002F02002304002F02002F0200000400EB
S11303502804002A04002C04002D040000040000DA
S113036002002D02002F02002D02003102002F0294
S1130370000002002D02000002002B02002A0200ED
S11303802802000004002604000004000002002AE1
S113039002002604002802002902002A04000004A6
S11303A0000008002304002B02002B0200000200BE
S11303B02B02002D02002B02002F02002D04002B23
S11303C00200000200290200280200260200240480
S11303D00024040026020028060027020028020048
S11303E00002002A12000002002002002102002262
S11303F002002304002C02002302002C02002A0223
S11304000000020029020029080000020025020061
S11304102402002302002204002A02002202002AED
S11304200200280200000200270200270800000240
S11304300023020022020021020020020023020005
S11304402802002502000002002802002A040023DA
S113045002002602002B02002802000002002B02E8
S1130460002D04002F10000004002F02002F0200B2
S11304703102002F02002B01002A0300280400008F
S113048004000008000010004000003404003101A2
S1130490002F030028020028020025010023030086
S11304A03101002B02002801002A0200280200006A
S11304B004002F04003402003402003101002F0133
S11304C0002C01002801002F02003102002F01003E
S11304D02C01002801002501002802002801002A1F
S11304E001002C01002F01003101002F0100340410
S11304F0000001002F01003101003301003402002B
S11305003402003101002F01002C01002801002FCA
S113051002003102002F01002C01002801002501F6
S1130520002F02002F0100310100320100330100CD
S11305303601003301002F040000010023010025CF
S113054001002701002802002801002801002802D8
S113055000280100280100280200280100280100C9
S11305602501002301002001001C010021020021BB
S113057001002101002102002101002101002502C6
S1130580002801002A01002B01002802002A010092
S11305902C01002B01002C01002B01002C01002F49
S11305A002002B01002C01002F01002C01002A0164
S11305B0002801002501000002003101002B020087
S11305C02801002A02002802000004002F0400343D
S11305D002003402003101002F01002C0100280127
S11305E0002F02003102002F01002C01002801001D
S11305F02501002802002801002A01002C01002FF7
S113060001003101002F01003404000001002F011A
S113061000310100330100340200340200310100D2
S11306202F01002C01002801002F02003102002FAD
S113063001002C01002801002501002F02002F01D8
S113064000310100320100330100360100330100A2
S11306502F040000010023010025010027010028C8
S113066002002801002801002802002801002801B6
S113067000280200280100280100250100230100B0
S11306802001001C010021020021010021010021A0
S113069002002101002101002502002801002A0195
S11306A0002B01002802002A01002C01002B01006C
S11306B02C01002B01002C01002F02002B01002C27
S11306C001002F01002C01002A010028010025014E
S11306D0000002003101002B02002801002A020060
S11306E02802000004002F0400000200230100235C
S11306F0010000020028020000020023010023017F
S1130700002802002902002A0C002A04002F0200FB
S11307102E02002D01002E01002D01002E01002CBF
S113072002002A02002902002A02002C02002A02E6
S1130730002901002A01002901002A0100280200E1
S11307402702002602002702002A02002F02002CA2
S113075001002A01002801002801002302002501CC
S1130760002701002A02002C02002A02002A0100AC
S11307702C01002E01003101002E02002A04000089
S113078004002302002F02002302002F0200230290
S1130790002F02002C01002A01002701002501007E
S11307A02302002F02002302002F02002302002F45
S11307B002002C01002A0100260100250100230269
S11307C0002301002501002601002701002A020060
S11307D02502002501002701002801002A01002C20
S11307E001002E01002F02002F02002C01002A011B
S11307F0002701002501002304000002002F01004E
S11308002F01002C02002A02002702002A020025E0
S113081001002701002501002301002002001E021F
S1130820002302002301002401002701002A020002
S11308302701002A02002C02000002002A02002FD5
S113084002002F02002C01002A01002702002A02C4
S1130850002C02002A01002701002302002A0200C2
S11308602A01002C01002E01003101002E02002A71
S113087004000004002F02002F02002C01002A01B2
S1130880002701002501002A02002A020027010096
S11308902501002301002001002602002602002871
S11308A001002601002301002001002901002A0182
S11308B0002901002A01002801002601002301006B
S11308C02001002302002301002501002601002746
S11308D001002801002901002A02002901002A013F
S11308E0002B01002C01002D01002E01002F02001D
S11308F02F02002C01002A010027010025010023FA
S113090004002F04003402003402003101002F01DE
S1130910002C01002801002F02003102002F0100E9
S11309202C01002801002501002802002801002ACA
S113093001002C01002F01003101002F01003404BB
S1130940000001002F0100310100330100340200D6
S11309503402003101002F01002C01002801002F76
S113096002003102002F01002C01002801002501A2
S1130970002F02002F010031010032010033010079
S11309803601003301002F0400000100230100257B
S11309900100270100280200280100280100280284
S11309A00028010028010028020028010028010075
S11309B02501002301002001001C01002102002167
S11309C00100210100210200210100210100250272
S11309D0002801002A01002B01002802002A01003E
S11309E02C01002B01002C01002B01002C01002FF5
S11309F002002B01002C01002F01002C01002A0110
S1130A00002801002501000002003101002B020032
S1130A102801002A02002802000004002F040034E8
S1130A2002003402003101002F01002C01002801D2
S1130A30002F02003102002F01002C0100280100C8
S1130A402501002802002801002A01002C01002FA2
S1130A5001003101002F01003404000001002F01C6
S1130A60003101003301003402003402003101007E
S1130A702F01002C01002801002F02003102002F59
S1130A8001002C01002801002501002F02002F0184
S1130A90003101003201003301003601003301004E
S1130AA02F04000001002301002501002701002874
S1130AB00200280100280100280200280100280162
S1130AC0002802002801002801002501002301005C
S1130AD02001001C0100210200210100210100214C
S1130AE002002101002101002502002801002A0141
S1130AF0002B01002802002A01002C01002B010018
S1130B002C01002B01002C01002F02002B01002CD2
S1130B1001002F01002C01002A01002801002501F9
S1130B20000002003101002B02002801002A02000B
S1130B302802002F08003402003402003101002F83
S1130B4003002802002802002501002303003101CC
S1130B50002B02002801002A0200280200000200E3
S1130B60230200280400400000000306090C0F12B1
S1130B7015181C1F2225282B2E303336393C3F41B3
S1130B804447494C4E515355585A5C5E6062646602
S1130B90686A6C6D6F70727375767778797A7B7C1E
S1130BA07C7D7E7E7F7F7F7F7F7F7F7F7F7F7F7E59
S1130BB07E7D7C7C7B7A79787776757372706F6DC5
S1130BC06C6A68666462605E5C5A585553514E4C58
S1130BD0494744413F3C393633302E2B2825221FC8
S1130BE01C1815120F0C09060300FDFAF7F4F1EEB8
S1130BF0EBE8E4E1DEDBD8D5D2D0CDCAC7C4C1BFAF
S1130C00BCB9B7B4B2AFADABA8A6A4A2A09E9C9A3F
S1130C109896949391908E8D8B8A89888786858403
S1130C2084838282818181818180818181818182A9
S1130C308283848485868788898A8B8D8E9091931C
S1130C409496989A9C9EA0A2A4A6A8ABADAFB2B469
S1130C50B7B9BCBFC1C4C7CACDD0D2D5D8DBDEE1D9
S1130C60E4E8EBEEF1F4F7FAFD0000710187019E70
S1130C7001B601D101EC010902290249026C029179
S1130C8002B802E2020E033C036D03A203D903136C
S1130C900452049304D90423057105C4051C067980
S1130CA006DB064407B2072708A4082709B2094649
S1130CB00AE30A880B380CF20CB70D880E650F4F47
S1130CC01048114F1265138D14C61511177018E4CE
S1130CD0196E1B101DCB1E9F2090229E24CB261A1A
S1130CE0298C2B232EE130C933005A0973091124AE
S1130CF01FBECFEFD8E0DEBFCDBF11E0A0E0B1E072
S1130D00ECE2F3E102C005900D92A230B107D9F7ED
S1130D1021E0A2E0B1E001C01D92AA33B207E1F7DD
S1130D2016E0C6E7D6E004C02197FE010E948309BD
S1130D30C537D107C9F70E94E9070C9489090C94B7
S1130D400000FC0112821182108617821082148224
S1130D50138212861186089508951092800089E006
S1130D608093810081E493E09093890080938800CC
S1130D7082E080936F0083E28093B00081E08093EF
S1130D80B10080E88093B4000895FC0110861782B6
S1130D9080E88093B4000895DC0117968D919C91AE
S1130DA018971196ED91FC911297E80FF91F12967E
S1130DB0FC93EE931197EF2FFF27E759F44FE4913B
S1130DC0892B51F00E2E000CFF0BFE5FF695E79574
S1130DD0F695E795E093B4000895FC01108280E84D
S1130DE08093B4000895FC01808181110AC01482AB
S1130DF013821682158281E080838BE894E09287C7
S1130E0081870895FC01808181110AC014821382B4
S1130E101682158281E0808388E690E0928781873C
S1130E200895DC018C91882309F461C01996ED9131
S1130E30FC911A97309709F45AC015962D913C915C
S1130E4016972115310509F04CC0809102018111DA
S1130E500DC018961C921E92179781E090E016968A
S1130E609C938E93159780930201089513962D9168
S1130E703C911497C901880F991F820F931F8E0FFD
S1130E809F1FFC014491403478F014961C921E92EA
S1130E90139718961C921E92179781E090E016966D
S1130EA09C938E9315970895E42FF0E0EE0FFF1FA7
S1130EB0E759F34F4591549118965C934E931797C5
S1130EC0FC0131968591949116969C938E93159777
S1130ED0109202012F5F3F4F14963C932E93139769
S1130EE008952150310916963C932E931597089531
S1130EF0FC017183608342831782108611861286F7
S1130F00138214821582168208950895FC01A0812B
S1130F10B1818C9121E030E0028002C0220F331FA6
S1130F200A94E2F7282B2C931782108611861286D6
S1130F300895FC01A081B1818C9121E030E0028010
S1130F4002C0220F331F0A94E2F7209528232C9322
S1130F5017821086118612860895FC0147835087F4
S1130F60618772870895CF92DF92EF92FF920F9379
S1130F701F93FC0187819085A185B2850097A10507
S1130F80B10501F103811481258136816A017B0158
S1130F90C01AD10AE20AF30AC816D906EA06FB0601
S1130FA088F0A081B1812C9181E090E0028002C0A0
S1130FB0880F991F0A94E2F782278C934383548302
S1130FC0658376831F910F91FF90EF90DF90CF9010
S1130FD0089587E084B917B888EF8AB95A9A2A9A8B
S1130FE05C9A82E084BD93E095BD9CE797BD8093B5
S1130FF06E0085E291E00E94AD0684E080930301D7
S11310007894C2E0D2E080E1C82E87E2D82EE12CA9
S1131010F12C11E003E0809103018130D9F138F023
S1131020823009F446C0833009F464C076C05C9809
S11310302A9A8AE191E00E9499078FE091E00E9448
S1131040860784E091E00E94990785E291E0329955
S113105003C00E94F30602C00E94ED064A9977C0BD
S11310605C9A2A98289885E291E00E94C50685E258
S113107091E00E940207109303014CE251E060E00A
S113108070E08AE191E00E94AD078FE091E00E9458
S113109099075DC02898359B51C0D09303012A9AC3
S11310A0C0923001D0923101E0923201F0923301CA
S11310B04EC08AE191E00E948607809130019091B0
S11310C03101A0913201B0913301892B8A2B8B2BF2
S11310D0F1F5009303018AE191E00E9499074CE243
S11310E051E060E070E08FE091E00E94AD072A9843
S11310F0289A2DC0289A84E091E0339B0BC00E946B
S11311009907349B1BC01092030185E291E00E9471
S1131110ED061DC00E9486071AC042E350E060E05D
S113112070E084E091E00E94AD07289A2A98339BEE
S11311300EC0349B03C01092030109C08091340196
S1131140882329F085B18C2785B910923401409108
S1131150360150913701609138017091390184E072
S113116091E00E94B307409136015091370160919C
S11311703801709139018AE191E00E94B3074091EE
S113118036015091370160913801709139018FE037
S113119091E00E94B30780913501882309F43BCF85
S11311A085E291E00E9411071092350134CF1F921D
S11311B00F920FB60F9211248F939F93AF93BF9307
S11311C08091360190913701A0913801B091390195
S11311D00196A11DB11D8093360190933701A09310
S11311E03801B0933901809101018150809301014C
S11311F0811106C081E0809335018BE18093010168
S113120080910001815080930001811105C081E02B
S113121080933401809300018091300190913101D9
S1131220A0913201B0913301892B8A2B8B2B99F039
S11312308091300190913101A0913201B09133013C
S11312400197A109B1098093300190933101A093D2
S11312503201B0933301BF91AF919F918F910F9061
S11312600FBE0F901F9018951F920F920FB60F92FA
S113127011242F933F934F935F936F937F938F9397
S11312809F93AF93BF93EF93FF9385E291E00E9406
S1131290CC06FF91EF91BF91AF919F918F917F9178
S11312A06F915F914F913F912F910F900FBE0F90CF
S11312B01F90189585E291E00E94A10645E06BE23B
S11312C070E08AE191E00E94780746E06BE270E00A
S11312D08FE091E00E94780747E06BE270E084E0E1
S11312E091E00C94780784E091E00E9485078FE0F8
S11312F091E00E9485078AE191E00E94850785E2DA
S113130091E00C94AC06EE0FFF1F0590F491E02DD4
S1131310099416E0C6E7D6E004C0FE010E948309E2
S10F13202196C737D107C9F7F894FFCF16
S105132C031F99
S9030000FC
