:100000000C9434000C9446000C9446000C9446006A
:100010000C9446000C9446000C9446000C94460048
:100020000C9446000C9446000C9446000C94460038
:100030000C9446000C9446000C94FD000C94460071
:100040000C9446000C9446000C9446000C94460018
:100050000C9446000C9446000C9446000C94460008
:100060000C9446000C94460011241FBECFEFD8E03C
:10007000DEBFCDBF21E0A0E0B1E001C01D92A43001
:10008000B207E1F70E9493000C9422010C94000047
:10009000FC01718360834283178210861186128669
:1000A00013821482158216820895DC01ED91FC9171
:1000B0001197408121E030E0C90112960C9002C0F6
:1000C000880F991F0A94E2F7842780830895FC0122
:1000D00047835087618772870895CF92DF92EF92AE
:1000E000FF920F931F93FC010781108521853285B4
:1000F000011511052105310579F0C380D480E58013
:10010000F6804C195D096E097F0940175107620797
:10011000730710F00E9455001F910F91FF90EF9010
:10012000DF90CF900895CF93DF93CDB7DEB7A1973F
:100130000FB6F894DEBF0FBECDBF87E084B917B805
:1001400088EE8AB982E084BD93E095BD9CE797BDB7
:1001500080936E0045E06BE270E0CE0101960E9454
:10016000480046E06BE270E0CE010C960E94480029
:1001700047E06BE270E0CE0147960E944800789419
:1001800044EF51E060E070E0CE0101960E9467000C
:100190004AEF50E060E070E0CE010C960E946700EC
:1001A00048EE53E060E070E0CE0147960E946700A1
:1001B0004091000150910101609102017091030191
:1001C000CE0101960E946D00409100015091010105
:1001D0006091020170910301CE010C960E946D00A6
:1001E0004091000150910101609102017091030161
:1001F000CE0147960E946D00DBCF1F920F920FB683
:100200000F9211248F939F93AF93BF93809100011E
:1002100090910101A0910201B09103010196A11DED
:10022000B11D8093000190930101A0930201B0934E
:100230000301BF91AF919F918F910F900FBE0F90CF
:080240001F901895F894FFCF00
:00000001FF
